:100000000C942A000C943F000C943F000C943F0089
:100010000C943F000C943F000C943F000C943F0064
:100020000C943F000C943F000C943F000C943F0054
:100030000C943F000C943F000C943F000C943F0044
:100040000C943F000C943F000C943F000C943F0034
:100050000C943F0011241FBECFE5D8E0DEBFCDBF1A
:1000600010E0A0E6B0E0ECEEF0E002C005900D92EA
:10007000A238B107D9F70E9469000C9474000C945F
:10008000000087E689B9539A549A80B5806880BD8C
:1000900080B5806380BD80B5866080BD08955D9B1E
:1000A000FECF8CB108950F931F93CF93FC018081F5
:1000B000882359F08F01C0E00E944F00CF5FF80104
:1000C000EC0FF11D80818111F7CFCF911F910F911E
:1000D00008950E94410080E690E00E94530080E76E
:0C00E00090E00E945300FBCFF894FFCF8B
:1000EC0048616C6C6F2066726F6D206D63722000BE
:1000FC0048616C6C6F2066726F6D206D6372200DA1
:02010C000A00E7
:00000001FF
