S01100004932435F536C6176652E73726563FB
S11300000C942A000C9434000C9434000C943400A6
S11300100C9434000C9434000C9434000C9434008C
S11300200C9434000C9434000C9434000C9434007C
S11300300C9434000C9434000C9434000C9434006C
S11300400C9434000C9434000C9434000C9434005C
S11300500C94340011241FBECFE5D8E0DEBFCDBF21
S11300600E9440000C946E000C94000084EC86BF47
S113007006B607FEFDCF86B7887F8038E1F708957E
S113008081B3876081BB80E282B90E9436008234EA
S113009079F08334C1F08134C1F7909A2FEF83ED66
S11300A090E3215080409040E1F700C00000EDCF84
S11300B0919A2FEF83ED90E3215080409040E1F737
S11300C000C00000E2CF929A2FEF83ED90E321501D
S11300D080409040E1F700C00000D7CFF894FFCFF4
S9030000FC
