S0180000554152545F5350495F50726F6A6563742E737265634F
S11300000C942A000C9434000C9434000C943400A6
S11300100C9434000C9434000C9434000C9434008C
S11300200C9434000C9434000C9434000C9434007C
S11300300C9434000C9434000C9434000C9434006C
S11300400C9434000C9434000C9434000C9434005C
S11300500C94340011241FBECFE5D8E0DEBFCDBF21
S11300600E946B000C9476000C9400009BB39F706C
S1130070282F207F922B9BBBC19AC39A33E03A95D9
S1130080F1F70000C39892E49A95F1F700C02BB3FE
S11300902F7030E1839FC0011124822B8BBBC39A44
S11300A083E08A95F1F70000C39885ED96E0019707
S11300B0F1F700C00000089587E689B988E18AB99C
S11300C086E880BD08955D9BFECF8CB908955F9B43
S11300D0FECF8CB108950E945C0083E40E9463000B
S11300E00E94670083E60E943600F7CFF894FFCFA2
S9030000FC
