S01200004932435F4D61737465722E7372656389
S11300000C942A000C9434000C9434000C943400A6
S11300100C9434000C9434000C9434000C9434008C
S11300200C9434000C9434000C9434000C9434007C
S11300300C9434000C9434000C9434000C9434006C
S11300400C9434000C9434000C9434000C9434005C
S11300500C94340011241FBECFE5D8E0DEBFCDBF21
S11300600E9460000C94CA000C94000010B88CE04C
S113007080B9089584EA86BF06B607FEFDCF81B134
S1130080887F8830E1F7089594E896BF83B906B66F
S113009007FEFDCF81B1887F8831E1F7089594E8A8
S11300A096BF83B906B607FEFDCF81B1887F88323B
S11300B0E1F7089584E986BF06B607FEFDCF0895EB
S11300C0D098D198D2980E9436000E943A002FEF1F
S11300D081EE94E0215080409040E1F700C00000A0
S11300E080E20E9444002FEF81EE94E02150804092
S11300F09040E1F700C00000C89B18C081E40E9452
S11301004F002FEF81EE94E0215080409040E1F7C2
S113011000C000000E945A002FEF81EE94E02150AD
S113012080409040E1F700C00000CFCFC99B18C0C9
S113013082E40E944F002FEF81EE94E02150804032
S11301409040E1F700C000000E945A002FEF81EEBA
S113015094E0215080409040E1F700C00000B5CF0A
S1130160CA9BB3CF83E40E944F002FEF81EE94E04B
S1130170215080409040E1F700C000000E945A00E6
S11301802FEF81EE94E0215080409040E1F700C0D1
S10B019000009BCFF894FFCF9F
S9030000FC
