:100000000C942A000C9447000C9447000C94470071
:100010000C9447000C9447000C9447000C94470044
:100020000C9447000C9447000C9447000C94470034
:100030000C9447000C948E000C9447000C944700DD
:100040000C9447000C9447000C9447000C94470014
:100050000C94470011241FBECFE5D8E0DEBFCDBF12
:1000600010E0A0E6B0E0E4E4F1E002C005900D92FB
:10007000AA38B107D9F720E0AAE8B0E001C01D9284
:10008000A03AB207E1F70E946A000C94A0000C9419
:10009000000087E689B988E98AB986E880BD0895B5
:1000A0005D9BFECF8CB908950F931F93CF93FC01F6
:1000B0008081882359F08F01C0E00E945000CF5FFB
:1000C000F801EC0FF11D80818111F7CFCF911F91C5
:1000D0000F9108950E944900789480E690E00E9474
:1000E0005400C0E080919E00882351F0CF5FEC2F38
:1000F000F0E080919F00E657FF4F808310929E00B2
:1001000089E790E00E9454002FEF83ED90E32150A7
:1001100080409040E1F700C00000E4CF1F920F92B2
:100120000FB60F9211248F9381E080939E008CB1C3
:1001300080939F008F910F900FBE0F901F90189586
:04014000F894FFCF61
:1001440057656C636F6D6520746F20496E746572BA
:10015400666163696E670D0A00526F626F742043B3
:0A0164006F6D6D616E640D0A0000FE
:00000001FF
