:100000000C942A000C9434000C9434000C943400AA
:100010000C9434000C9434000C9434000C94340090
:100020000C9434000C9434000C9434000C94340080
:100030000C9434000C9434000C9434000C94340070
:100040000C9434000C9434000C9434000C94340060
:100050000C94340011241FBECFE5D8E0DEBFCDBF25
:100060000E9445000C945C000C94000087B3806AE9
:1000700087BB84B3856084BB8DB181658DB90895DC
:100080008FB9779BFECF8FB108950E943600C4E0F0
:10009000A8988AEA0E944000A89A8535C9F785B3D6
:1000A0008C2785BB2FEF83ED90E32150804090405B
:0C00B000E1F700C00000ECCFF894FFCF97
:00000001FF
